:020000040800F2
:10000000B00400204D020008B5380008AD380008E3
:10001000B138000869030008D14E00085F020008EB
:10002000000000000000000000000000A53A0008E9
:100030006D03000800000000B9380008A93A000864
:1000400069020008690200086902000869020008E4
:1000500069020008690200086902000869020008D4
:1000600069020008690200086902000869020008C4
:1000700069020008690200086902000869020008B4
:1000800069020008690200086902000869020008A4
:100090006902000869020008690200086902000894
:1000A0006902000869020008690200086902000884
:1000B00000000000690200086902000869020008E7
:1000C0006902000869020008690200086902000864
:1000D0006902000869020008690200086902000854
:1000E0006902000869020008690200086902000844
:1000F0006902000869020008690200086902000834
:100100006902000869020008690200086902000823
:100110006902000869020008690200086902000813
:100120006902000869020008690200086902000803
:1001300069020008C54E000869020008690200084B
:1001400069020008690200086902000869020008E3
:1001500069020008690200086902000869020008D3
:1001600069020008690200086902000869020008C3
:1001700069020008690200086902000869020008B3
:1001800069020008690200086902000869020008A3
:100190006902000869020008690200086902000893
:1001A0006902000869020008690200086902000883
:1001B00069020008000000006902000869020008E6
:1001C00069020008000000006902000869020008D6
:1001D0006902000869020008690200086902000853
:1001E0006902000869020008690200086902000843
:1001F0000000000000000000690200086902000819
:100200006902000869020008690200086902000822
:100210006902000869020008690200086902000812
:100220006902000869020008690200086902000802
:100230006902000869020008DFF80CD000F07CF8C1
:1002400000480047F54E0008B004002007488047EA
:1002500007480047FEE7FEE7FEE7FEE7FEE7FEE7AA
:10026000FEE7FEE7FEE7FEE7FEE70000AD3A000826
:10027000390200082DE9F05F0546002092469B46B2
:1002800088460646814640241BE0284641464746AC
:10029000224600F041F853465A46C01A914110D305
:1002A00011461846224600F028F82D1A67EB01087F
:1002B0004F4622460120002100F01FF817EB0009ED
:1002C0004E41201EA4F10104DFDC484631462A4697
:1002D0004346BDE8F09FD2B201E000F8012B491E71
:1002E000FBD270470022F6E710B513460A460446D3
:1002F0001946FFF7F0FF204610BD202A04DB203A04
:1003000000FA02F1002070479140C2F1200320FA68
:1003100003F3194390407047202A04DB203A21FA66
:1003200002F00021704721FA02F3D040C2F120020E
:1003300091400843194670471CB509480090094888
:1003400001900546009C06E0E06840F0010394E857
:10035000070098471034AC42F6D3FFF771FF000056
:100360001C5600083C560008FEE7000070470000DD
:1003700072B600BFFEE70000B0B5044600F09AF97F
:10038000002C04BF0120B0BD054694F8540002289B
:1003900024D12068416941F004014161052084F8BD
:1003A000540000BF2168086980041FD400F082F95E
:1003B000401B0628F6D3A06D40F01000A065032076
:1003C00084F8540094F8500000064FF0010001D565
:1003D000616F0873002184F84C10B0BD2020A06527
:1003E0000120002184F84C10B0BD00BF48690122F3
:1003F00040F002004861042084F854004FF4FE40AD
:10040000C86084F8542094F8500000064FF00000B3
:10041000E0D5636F1A738864002184F84C10B0BD76
:1004200080B190F8541002290AD1042180F85410A8
:10043000006842F2040241691143416100207047A3
:100440002021816501207047B0B5044600F032F9E3
:10045000054640F20400C2F200000078611C18BF9B
:10046000044400BF00F026F9401BA042FAD3B0BDFF
:100470002DE9F04F83B00E68002E00F01781814601
:100480002030019047F67F70C0F22F0000EA9920DB
:10049000002200234FF0010B00274FF00008C4F2A8
:1004A0000262CA464FF0000C00900FE00022C4F236
:1004B00002620E680CF1010C36FA0CF008F1020829
:1004C00007F1040703F1080300F0F0800BFA0CF5C4
:1004D00016EA0500EDD09145029025D04E6846F011
:1004E0001002122A5ED16FF0030000EA5C0201984C
:1004F00007F01C0550F802E00E690F24AC4006F02E
:100500000F062EEA0404AE4026438650DAF8002097
:1005100003204E6800FA08F5AA4306F0030505FA21
:1005200008F52A4349E000BF10684E6845F234548C
:1005300006F00106A84306FA0CF6C0F600043043A4
:1005400004EBCC061060D6F804E06FF0030054F81A
:100550003CA000EA5E051C20554400EA8E06D5F852
:1005600020B00F22484602FA06F92BEA090281461A
:100570000B2000FA06F632432A62DAF800204FEA2E
:100580004E05032000FA05F60220B24300FA05F5F5
:100590002A43CAF800204E684FF0010B122E11D9E1
:1005A00036E000BFDAF80020032000FA08F5AA437D
:1005B00006F0030505FA08F52A43E646CAF80020C6
:1005C000122E25D80BFA06F212F0061F1AD04FEAA7
:1005D0004E040320DAF8082000FA04F5C868AA439C
:1005E000A0401043CAF80800DAF804000BFA0EF233
:1005F0009043320902FA0EF21043032ECAF80400A7
:1006000002D005E0032E03D1886801283FF44EAFE5
:10061000DAF80C004FEA4E0203258C689540A84397
:1006200004FA02F21043F200CAF80C007FF53EAF64
:1006300042F2000E2CF00300C4F2026E7044026E0F
:1006400003F018060F25B540AA43009D05FA06F6EB
:1006500032430266DEF80000029C4A6840EA040663
:10066000D50258BF20EA0406CEF80060DEF8040088
:10067000950240EA040658BF20EA0406CEF804605A
:10068000DEF88400950340EA040658BF20EA040619
:10069000CEF88460DEF88000D20340EA040658BF3A
:1006A00020EA0406CEF8806000E700BF03B0BDE892
:1006B000F08F000040F2A800C2F20000006870470E
:1006C00040F2040040F2A801C2F20000C2F20001B0
:1006D00000780A68104408607047000080B542F254
:1006E0000000C4F20200016841F48071016003203F
:1006F00000F0C4F801F0E0FC40F62041C4F20261D1
:10070000096845F21C5201F00F01C0F60002515C6D
:10071000C84040F20C01C2F200010860042002F05F
:100720000BFB0F2000F008F800281CBF012080BD43
:1007300000F056F8002080BDB0B540F20405C2F2CA
:1007400000052978E1B304464EF21000CEF2000015
:100750000068400710D402F03DFB022824D0012895
:100760001AD078BB40F20C00C2F200000068297871
:100770004FF4FA5207E000BF40F20C00C2F2000052
:1007800000684FF47A72B2FBF1F1B0FBF1F002F0C5
:100790000FFBA8B91BE000BF28784FF47A71B1FBBA
:1007A000F0F04FF4FA4106E028784FF47A71B1FB8B
:1007B000F0F04FF40041B1FBF0F002F0F9FA30B183
:1007C0000120B0BD002002F0F3FA0028F8D14FF06C
:1007D000FF302146002200F025F800206C60B0BDFB
:1007E00081B040F69440C4F20260016841F0040117
:1007F0000160006800F004000090009801B07047AC
:10080000002848BF70471C2200F01F0102EAD000F8
:10081000012202FA01F14EF20012CEF200028150E2
:100820007047000010B54EF60C5CCEF2000CDCF800
:100830000030C3F3022E8EF00704042C28BF0424DA
:10084000BEF103034FF0FF3E38BF00230EFA04F45D
:10085000A14399400EFA03F39A43114300F00F02AB
:1008600000F160430901043A03F56443624400283F
:1008700048BF02F10C03197010BD00004EF60C5178
:10088000CEF200010A684FF6FF031A4060F30A2215
:1008900042F0806040F0FD700860704740F60C0C3C
:1008A000C4F2026CDCF8302002F4403282420BD1F8
:1008B000B0F1011F68D3DCF8000040F48020CCF8D0
:1008C00000000020704700BFDCF80020B0F5803F3A
:1008D00022F4E02242EA000240F20C0088BF42F417
:1008E0008022CCF80020C2F20000006841F2597268
:1008F000CDF2B712A0FB0202900B0346DCF8001009
:10090000B3F1FF3218BF012209041ED4591C1CD0B8
:10091000DCF80010002B1A4618BF0122090414D479
:100920009BB1DCF800105A1E18BF012209040CD438
:10093000012B0AD0DCF800109A1E18BF012209040E
:1009400003D4022BA3F10403D8D112B3DCF8301086
:10095000421C090416D4AAB1DCF83010090412D4E0
:1009600088B1DCF83010090410D401280ED0DCF86E
:100970003010021F090402D402281046E6D1901C50
:1009800010B906E0104620B1002070470138002859
:10099000FAD103207047000040F63C00C4F2026028
:1009A000006800F440307047B0B540F6284EC4F2FD
:1009B000026EDEF80C50DEF80030DEF80010DEF8D3
:1009C0000020DEF81040D206E40804EAE272C1F327
:1009D000032103F003036FF35F3201F1010C00EE1A
:1009E000102A6FF35F25B8EE400ADFE803F0030337
:1009F0000B0B00BF5EF8201C09025DD4DEF8CC10A2
:100A00000B045BE001EE10CA9FED472AB8EE411AD5
:100A1000DEF80C1082EE011A6FF35F2102EE101A5D
:100A20009FED403AB8EE422A20EE030A30EE020A69
:100A3000B7EE002A30EE020A21EE000ADEF80010BE
:100A4000C90360D5DEF80C10C1F34621013101EE77
:100A5000101AB8EE411A80EE011ABCEEC11A11EE5E
:100A6000102A0260DEF80010890352D5DEF80C105F
:100A7000C1F30641013101EE101AB8EE411A80EEC1
:100A8000011ABCEEC11A11EE102A4260DEF8001005
:100A9000490344D5DEF80C10C1F30661013101EEC3
:100AA000101AB8EE411A80EE010ABCEEC00A10EE30
:100AB000101A8160B0BD00BF5EF8203C45F2B45210
:100AC000190FC0F6000202EB810102EE10CA91ED8F
:100AD000001AB8EE422AB8EE411A9FED123A81EEA2
:100AE000021A02EE105A20EE030AB8EE422A30EE45
:100AF000020AB7EE002A30EE020A20EE010ADEF802
:100B00000010C9039ED400220260DEF800108903A1
:100B1000ACD400224260DEF800104903BAD40021B0
:100B20008160B0BD000000390024744BB0B540F6C0
:100B30002C4EC4F2026EDEF81050DEF80030DEF803
:100B40000010DEF80020DEF81440D206E40804EAC3
:100B5000E272C1F3032103F003036FF35F3201F18B
:100B6000010C00EE102A6FF35F25B8EE400ADFE8B3
:100B700003F003030B0B00BF5EF8241C09025DD4D5
:100B8000DEF8C8100B045BE001EE10CA9FED472AA7
:100B9000B8EE411ADEF8101082EE011A6FF35F21F1
:100BA00002EE101A9FED403AB8EE422A20EE030AF8
:100BB00030EE020AB7EE002A30EE020A21EE000AF9
:100BC000DEF80010C90360D5DEF81010C1F346212D
:100BD000013101EE101AB8EE411A80EE011ABCEE96
:100BE000C11A11EE102A0260DEF80010890352D5F6
:100BF000DEF81010C1F30641013101EE101AB8EE13
:100C0000411A80EE011ABCEEC11A11EE102A4260A0
:100C1000DEF80010490344D5DEF81010C1F3066178
:100C2000013101EE101AB8EE411A80EE010ABCEE55
:100C3000C00A10EE101A8160B0BD00BF5EF8243CFF
:100C400045F2B452190FC0F6000202EB810102EE28
:100C500010CA91ED001AB8EE422AB8EE411A9FED83
:100C6000123A81EE021A02EE105A20EE030AB8EE92
:100C7000422A30EE020AB7EE002A30EE020A20EED7
:100C8000010ADEF80010C9039ED400220260DEF8DB
:100C900000108903ACD400224260DEF80010490342
:100CA000BAD400218160B0BD000000390024744B2B
:100CB000B0B540F6304EC4F2026EDEF81450DEF8E5
:100CC0000030DEF80010DEF80020DEF81840D20612
:100CD000E40804EAE272C1F3032103F003036FF3B3
:100CE0005F3201F1010C00EE102A6FF35F25B8EEC0
:100CF000400ADFE803F003030B0B00BF5EF8281C7B
:100D000009025DD4DEF8C4100B045BE001EE10CAEA
:100D10009FED472AB8EE411ADEF8141082EE011A50
:100D20006FF35F2102EE101A9FED403AB8EE422AAF
:100D300020EE030A30EE020AB7EE002A30EE020A75
:100D400021EE000ADEF80010C90360D5DEF81410A9
:100D5000C1F34621013101EE101AB8EE411A80EEBE
:100D6000011ABCEEC11A11EE102A0260DEF8001062
:100D7000890352D5DEF81410C1F30641013101EEAA
:100D8000101AB8EE411A80EE011ABCEEC11A11EE2B
:100D9000102A4260DEF80010490344D5DEF8141032
:100DA000C1F30661013101EE101AB8EE411A80EE6E
:100DB000010ABCEEC00A10EE101A8160B0BD00BF7F
:100DC0005EF8283C45F2B452190FC0F6000202EB5F
:100DD000810102EE10CA91ED001AB8EE422AB8EE77
:100DE000411A9FED123A81EE021A02EE105A20EEDD
:100DF000030AB8EE422A30EE020AB7EE002A30EEBD
:100E0000020A20EE010ADEF80010C9039ED4002277
:100E10000260DEF800108903ACD400224260DEF8E4
:100E200000104903BAD400218160B0BD0000003930
:100E30000024744B80B584B0024647F6FF7300204F
:100E40009B1A70EB0103C0F26D80D2F17F0370EB4F
:100E50000103C0F2A380013A61F10001D2F13F0326
:100E60004FF0000373EB0101C0F04A84DFE812F099
:100E700040005A0248040402480448044804EA01B5
:100E800048044804480448044804480448041E022E
:100E900048044804480448044804480448044804F2
:100EA0004804480448044804480448044804C60167
:100EB00048044804480448044804480448044804D2
:100EC00048044804480448044804480448044804C2
:100ED00048044804480448044804480448044804B2
:100EE00048044804480448044804480448043A02B2
:100EF00040F60040C4F20260D0F8E01001F00301B7
:100F0000012900F05183002900F0F88202680229CB
:100F100003D112F4806240F09E83D0F8F0000329E0
:100F20004FE200BF4FF6FF73C0F23F039B1A70EB16
:100F3000010367DB4FF6FF73C0F203039B1A4FF008
:100F4000000C7CEB010380F285804FF6FF73C0F24A
:100F50000F039B1A7CEB0103C0F2EE8082F4802326
:100F60000B4300F0F98182F40022114340F0C88362
:100F700040F60040C4F20260D0F8E410026801F4C8
:100F80004051920440F12483002940F0218346F629
:100F90000040C0F2DC2004B080BD00BF40F2FF334F
:100FA0009B1A4FF0000C7CEB010380F2778041F636
:100FB000FF739B1A7CEB0103C0F2DC8082F4806338
:100FC0000B4300F0DF8182F40062114340F098830C
:100FD00040F60040C4F20260D0F8E81011F440710D
:100FE00000F09282D0F8F020B1F5807F03D112F0AA
:100FF000006240F000830268B1F5007F00F0698173
:101000006BE100BF6FF07E439B1A4FF0000C7CEB4E
:10101000010380F273806FF078439B1A7CEB01032D
:10102000C0F2C68082F000730B4300F0D38182F0DF
:101030008062114340F0648340F60040C4F20260D5
:10104000D0F8E410C1F30151DFE811F0AE025E0206
:101050001A02B40282F400430B4300F0618282F46E
:1010600080330B4300F0128282F40032114340F0CF
:10107000478340F60041C4F20261D1F8E800C0F3B2
:101080000242042A00F2CC824BF68030DFE812F0F4
:1010900058021202D60238039A0200BF82F080037F
:1010A0000B4300F0538282F480730B4300F00882FC
:1010B00082F40072114340F0238340F60040C4F2F2
:1010C0000260D0F8E81011F4406100F0A582D0F879
:1010D000F020B1F5806F03D112F0006240F08B82F6
:1010E0000268B1F5006F03D112F4806240F0B38260
:1010F000D0F8F000B1F5406F63E100BF82F48003E7
:101100000B4300F03F8282F400030B4300F0EA81BE
:1011100082F08072114340F0F38240F60040C4F246
:101120000260D0F8E010C1F30141DFE811F03802AD
:101130003D02F701ED0100BF82F480130B4300F084
:10114000578182F40012114340F0DA8240F60040E9
:10115000C4F20260D0F8E410490400F1AB81D0F889
:10116000E010C1F38161DFE811F0510125028B012C
:10117000CF0100BF82F400530B4300F0518182F491
:101180008042114340F0BC8240F60041C4F202614B
:10119000D1F8E400C0F30222042A00F241824BF6A7
:1011A0008030DFE812F0330251018701AD024102C5
:1011B00082F000630B4300F04D8182F080521143B6
:1011C00040F09E8240F60041C4F20261D1F8E8008E
:1011D000D1F8F020920700F4004202D5002A00F076
:1011E000CC80D1F8F00000014FF0000040F188827F
:1011F000002A00F08582D1F8F000FEE140F60041BF
:10120000C4F20261D1F8E80000F00700012800F004
:10121000CB81002800F060810A68022803D112F413
:10122000806240F01882D1F8F020032803D112F038
:10123000020240F0A2800A6804284FF0000000F08B
:1012400055825DE240F60040C4F20260D0F8E01042
:1012500001F0C001402900F0A781002900F09F8122
:101260000268802903D112F4806240F0F481D0F842
:10127000F000C029A5E000BF40F60040C4F20260C3
:10128000D0F8E01001F03001102900F08D81002924
:1012900000F085810268202903D112F4806240F0B9
:1012A000DA81D0F8F00030298BE000BF40F6004032
:1012B000C4F20260D0F8E01001F44071B1F5807F13
:1012C00000F07281002900F06A810268B1F5007FA8
:1012D00003D112F4806240F0BE81D0F8F000B1F585
:1012E000407F6EE040F60041C4F20261D1F8E000B8
:1012F00000F44060B0F5806F00F05681002800F0E7
:101300004E810A68B0F5006F03D112F4806240F09C
:10131000A2810A68B0F5406F4FF0000000F0E6814E
:10132000EEE100BF40F60040C4F20260D0F8E010E9
:1013300001F00C01042900F03781002900F02F8111
:101340000268082903D112F4806240F08481D0F849
:10135000F0000C2935E000BF40F60040C4F2026006
:10136000D0F8F010D0F8F02001F44071920740F16D
:101370003B81B1F5807F40F037814FF4004004B0ED
:1013800080BD00BF40F60040C4F20260D0F8E0101B
:1013900011F4402100F00381D0F8F020B1F5802F46
:1013A00003D112F0006240F026810268B1F5002FEF
:1013B00003D112F4806240F04E81D0F8F000B1F514
:1013C000402F00F002024FF0000008BF900304B06D
:1013D00080BD00BF40F60040C4F20260D0F8E810C3
:1013E000C1F3C101DFE811F07800E0009A0090003D
:1013F00040F60040C4F20260D0F8E010C1F3816111
:10140000DFE811F00400D8003E008200006846F6D4
:1014100000418004C0F2DC2101EAE07004B080BD2C
:1014200040F60041C4F20261D1F8E400C0F3421278
:10143000042A00F2F5804BF68030DFE812F0E70076
:1014400005003B006101F50001A8FFF731FC0198A0
:1014500004B080BD40F60040C4F20260D0F8E01055
:101460000068800301F0407002D5002800F0F3808E
:10147000B0F1007F00F0CA80B0F1807F40F0D080F2
:1014800001A8FFF791FA029804B080BD40F6004130
:10149000C4F20261D1F8E40000F00702042A00F26D
:1014A000BF804BF68030DFE812F04B000500C9002A
:1014B0002B018D0001A8FFF777FA019804B080BDD9
:1014C00040F60040C4F20260D0F8E810C1F3811188
:1014D000DFE801F0026A241A04B0BDE8804000F0A1
:1014E000CBBD00BF40F60040C4F20260D0F8E0106F
:1014F000C1F30151DFE801F00258120804B0BDE861
:10150000804000F099BD00BF0168890640F18880E5
:101510008168090254D4D0F8F400EFE0006884E058
:1015200040F60041C4F20261D1F8E800C0F3023293
:10153000052A00F2BB80DFE802F00337B3B9B945F2
:1015400004B0BDE8804000F041BD00BF40F600415E
:10155000C4F20261D1F8E00000F44050B0F5805FC1
:1015600022D0E0B10A68B0F5005F02D112F48062C7
:1015700071D10A68B0F5405F4FF0000000F0B6800E
:10158000BEE000BF40F60041C4F20261D1F8E000C5
:1015900000F44040B0F5804F06D0002854D104B08C
:1015A000BDE8804000F028BD04B0BDE8804000F0F8
:1015B00083BD00BF01A8FFF7B9FA029804B080BD4F
:1015C0008068A0E00868800600F1938028E000BFF2
:1015D0000268920446D5B1F5805F43D143F20060C2
:1015E000C0F26E1004B080BDD0F8F020120147D5D3
:1015F000B1F5007F44D1D0F8F000C0004FF0FA0000
:1016000058BF4FF4FA4004B080BD00BF01A8FFF7F7
:101610008DFA019804B080BD016889063FF578AF66
:10162000002004B080BD00BF086842F200414005C0
:10163000C0F2F40101EAE07004B080BD01A8FFF738
:1016400037FB029804B080BD0A68B0F5004F47D15F
:1016500012F4806244D042F20040C0F2F40004B0C0
:1016600080BD00BF0068B1F5005F00F480624FF0FC
:10167000000004BF42F20040C0F2F4000CE000BFE2
:101680000068B1F5407F00F400324FF0000004BF65
:101690004AF22010C0F20700002A08BF10462FE0CF
:1016A00001A8FFF743FA039804B080BD00F4E042BC
:1016B0000B6842F20040B2F5405FC0F2F40002D184
:1016C00013F400331CD1096811F4806118BF01467E
:1016D000B2F5804F18BF0021084604B080BD00BF9E
:1016E0000A68B0F5404F4FF0000009D112F0200217
:1016F00006D08868000205D4D1F8F400000402E0A6
:1017000004B080BD8868C0F3036045F2B451C0F6F0
:10171000000151F8200004B080BD00002DE9F04F19
:1017200081B00446006840F6E046C107C4F2026694
:101730001ED1810724D441072AD4010730D4C10621
:1017400036D481063CD4410642D4010648D4C105B2
:101750004ED4410254D481055AD4410560D40105C8
:1017600066D440F628488004C4F202686DD494E040
:101770003168226D21F00301114331608107DAD510
:101780003168626D21F00C01114331604107D4D5FD
:101790003168A26D21F03001114331600107CED5CF
:1017A0003168E26D21F0C00111433160C106C8D536
:1017B0003168226E21F44071114331608106C2D537
:1017C000B168626E21F007011143B1604106BCD5DA
:1017D0003168A26E21F44061114331600106B6D533
:1017E0003168E26E21F4405111433160C105B0D53A
:1017F000B168226F21F0C0011143B1604102AAD546
:101800003168626F21F44041114331608105A4D5F4
:10181000B168A26F21F440611143B16041059ED5CA
:101820003168E26F21F4402111433160010598D500
:10183000B168D4F8802021F440711143B16040F6C2
:1018400028488004C4F2026827D5D4F890004FEAF3
:101850007011042928D8DFE801F003130B1B1B00CB
:1018600004F1080002F02AF80546B8B90EE000BFFE
:10187000D8F8001041F48031C8F8001008E000BF2B
:1018800004F12C0002F094F8054638B9D4F8900021
:10189000716821F0E001084370600025607840061F
:1018A00006D4284629E000BF012560784006F8D517
:1018B000D4F894004FEA3021042939D82846DFE8CB
:1018C00001F0032F0B12120004F1080001F0F6FFE3
:1018D000074698B909E000BFD8F8000040F480300E
:1018E000C8F800002846074640B97068D4F894103C
:1018F00020F4E0600843706000202F4661780906FC
:1019000029D5D4F8A4104FEA3131052900F2C68157
:10191000022911D00546B0B1A178C9071FD13BE01B
:1019200004F12C0002F044F800280746E6D1DCE779
:1019300001200127E2E700BF04F1080001F0BEFF2B
:1019400000280546E8D1B068D4F8A41020F4E0409F
:101950000843B06000203D46A178C9071CD0D4F8E8
:101960008810042900F29281DFE811F00C000600D3
:101970007C010C000C0000BFD8F8001041F480314D
:10198000C8F80010074640B97068D4F8881020F0F5
:1019900007000843706000202F46A17889071DD5F5
:1019A000D4F88C104FEA3141042900F27381DFE84A
:1019B00011F00B00050063010B000B00D8F80010BC
:1019C00041F48031C8F80010824640B9B068D4F8BC
:1019D0008C1020F4E0200843B0600020BA46A178C3
:1019E000490701D4574659E0834656F84C0C5FEA44
:1019F00040790BD456F84C0C40F0040046F84C0CDF
:101A000056F84C0C00F00400009000984FF6004788
:101A1000CFF6FF7758F8070040F0010048F80700BC
:101A2000FEF748FE054600BF58F80700C00707D17B
:101A3000FEF740FE401B0228F6D90320032724E0CE
:101A40005846BBF1000F5F461FD1306910F440705B
:101A500012D0D4F8BC1088420BD03069316920F420
:101A6000407041F480313161316921F4803131615C
:101A70003061C00740F01A813069D4F8BC1020F4FE
:101A800040700843306100205746B9F1000F05D47B
:101A900056F84C1C21F0040146F84C1CA178C906EC
:101AA00018D5D4F89C104FEAB161032900F2D08018
:101AB000DFE801F00602C20604F1080001F0FEFEB4
:101AC000024640B93068D4F89C1020F040600843CA
:101AD000306000203A4621680B031DD5D4F89830B9
:101AE00033B1B3F5005F18BFB3F5805F40F0B48049
:101AF000054658B18A0212D40A0222D4CA0129D456
:101B00008A0130D4490137D459E000BF706820F40D
:101B1000405018437060002015468A02ECD5D4F876
:101B2000A020B2F5804F05D1D8F8003043F48033BF
:101B3000C8F80030736823F480431A4372600A02C5
:101B4000DCD53268D4F8B03022F440121A43326047
:101B5000CA01D5D53268D4F8B43022F440321A43E1
:101B600032608A01CED5B268D4F8B83022F01802BB
:101B70001A43B260490122D5D4F8AC10B1F5401F28
:101B80000ED0B1F5001F05D1D8F8001041F4003196
:101B9000C8F80010074650B1E178090713D436E0C1
:101BA00004F1080001F08AFE00280746F4D17068AD
:101BB000D4F8AC1020F440100843706000202F4689
:101BC000E178090723D5D4F8841059B1B1F1007F29
:101BD00010D0B1F1807F29D1D8F8001041F4003144
:101BE000C8F8001060B1E178C90614D401B0BDE8AE
:101BF000F08F00BF04F1080001F060FE0028F2D170
:101C00003068D4F8841020F04070084330603846C3
:101C1000E178C906EAD5B168D4F8A82021F40041DA
:101C20001143B16001B0BDE8F08F00BF0120E17841
:101C3000C906DBD5EFE700BFD8F8001041F400314A
:101C4000C8F80010002802467FF445AF3AE700BF0D
:101C5000012001223FE700BF012001258A027FF514
:101C60004BAF5CE704F12C0001F0A2FE0028074610
:101C70007FF493AE88E600BF04F12C0001F098FEDB
:101C8000002882467FF4ABAEA0E600BF012001270A
:101C900083E600BF01204FF0010AA0E601200125E4
:101CA000A178C9077FF45BAE76E600BFFEF702FDC0
:101CB000054641F2883B0327306980073FF5DCAEDB
:101CC000FEF7F8FC411B03205945F5D9DDE600007D
:101CD0002DE9F04F81B0002800F01C8142F200088D
:101CE000C4F202080446D8F800000D4600F00F00C8
:101CF00081420DD9D8F8000020F00F002843C8F821
:101D00000000D8F8000000F00F00A84240F0028167
:101D1000206840F62049C106C4F202690DD5616908
:101D2000D9F8042002F07002914206D9D9F80420B3
:101D300022F070021143C9F8041001070FD5216980
:101D4000D9F80020702303EA1212914207D9D9F87A
:101D5000002022F4E06242EA0111C9F800104107B4
:101D60000DD5E168D9F8002002F07002914206D941
:101D7000D9F8002022F070021143C9F80010810741
:101D80000DD5A168D9F8002002F00F02914206D9C2
:101D9000D9F8002022F00F021143C9F80010C00743
:101DA00074D1206881070DD5A168D9F8002002F010
:101DB0000F02914206D2D9F8002022F00F021143FF
:101DC000C9F80010D8F8001001F00F018D420DD2B3
:101DD000D8F8001021F00F012943C8F80010D8F8F6
:101DE000001001F00F01A94240F0948041070DD589
:101DF000E168D9F8002002F07002914206D2D9F8C9
:101E0000002022F070021143C9F8001001070FD51D
:101E10002169D9F80020702303EA1212914207D2F7
:101E2000D9F8002022F4E06242EA0111C9F800105A
:101E3000C0060DD56069D9F8041001F07001884220
:101E400006D2D9F8041021F070010843C9F8040043
:101E500000F032F9D9F8001045F21C5201F00F01E0
:101E6000C0F60002525C40F20801C2F200010968AB
:101E700040F20C0320FA02F2C2F2000308461A6094
:101E800001B0BDE8F04FFEF757BC00BF606840F6F8
:101E90001C47C4F2026798B302282BD0032835D11F
:101EA000D9F874005FEA407A0BD4D9F8740040F096
:101EB0000400C9F87400D9F8740000F00400009020
:101EC0000098FEF7F7FB4FF6F03BCFF6FF7B57F895
:101ED0000B1049036AD4BAF1000F05D4D9F8740085
:101EE00020F00400C9F8740057F81C0C800111D5CB
:101EF000606813E057F81C0C80030BD502200DE03E
:101F000057F81C0C400705D5002007E057F81C1CAB
:101F1000490503D4012001B0BDE8F08F396821F0F4
:101F2000030108433860FEF7C5FB616806460329D4
:101F300041F2883A33D0022923D069B9386810F0C9
:101F40000C0F3FF42EAFFEF7B5FB801B50454FF052
:101F50000300F3D9DFE700BF386800F00C00042865
:101F60003FF41FAFFEF7A6FB801B50454FF0030068
:101F7000F2D9D0E7FEF79EFB801B50454FF00300DF
:101F8000C9D8386800F00C000828F3D109E700BF71
:101F9000FEF790FB801B50454FF00300BBD838681C
:101FA00000F00C000C28F3D1FBE600BF064600BF92
:101FB00057F80B0040043FF58EAFFEF77BFB801B0C
:101FC00002284FF00300F3D9A5E7000080B500F028
:101FD00073F840F62041C4F20261096845F21C52D0
:101FE00001F00F01C0F60002515CC84040F20C0144
:101FF000C2F20001086080BD80B500F05DF840F6D7
:102000002041C4F202610A6845F21C5302F00F023B
:10201000C0F600039A5CD04040F20C02C2F200020B
:102020001060096845F22C52C1F30211C0F600029B
:10203000515CC84080BD000080B500F03DF840F61E
:102040002041C4F202610A6845F21C5302F00F02FB
:10205000C0F600039A5CD04040F20C02C2F20002CB
:102060001060096845F22C52C1F30221C0F600024B
:10207000515CC84080BD000080B500F01DF840F6FE
:102080002041C4F202610A6845F21C5302F00F02BB
:10209000C0F600039A5CD04040F20C02C2F200028B
:1020A0001060496845F22C52C1F30211C0F60002DB
:1020B000515CC84080BD000040F62841C4F2026176
:1020C00051F80C0C10F00C02086815D00C2A04BF53
:1020D00000F0030001280FD051F80C0C9FED350AD9
:1020E00000F00C00042842F20040C0F2F4001DD0C1
:1020F000082A18BF002019E051F8200C000205D46E
:10210000D1F8CC00C0F3033003E000BF51F8200C3D
:10211000000F45F2B453C0F6000353F82000002A24
:1021200000EE100A18BF0020B8EE400A0C2A18BFB3
:102130007047D1F800C00A680B68C2F3032208692F
:10214000013201EE102AC008B8EE411ADB069FEDFD
:102150001B2A00EAE3705FEA8C7258BFB0EE402A97
:1021600082EE010A6FF35F3001EE100AC868B8EE24
:10217000411A6FF35F2002EE100A9FED0F3AB8EE9E
:10218000422A21EE031AC86831EE021AB7EE002A7D
:10219000C0F3066031EE021A013020EE010A01EEB2
:1021A000100AB8EE411A80EE010ABCEEC00A10EE29
:1021B000100A704700000000000000390024744B32
:1021C000002804BF012070472DE9F04381B040F69C
:1021D00094490446C4F2026959F8780C59F86C1C09
:1021E000227800F00C07D00601F0030822D42078F2
:1021F000C00779D0082F73D00C2F08BFB8F1030F98
:102200006ED040F60046C4F2026661683068B1F5EF
:10221000803F00F0DF82B1F5A81F00F0D382B1F556
:10222000A02F40F0E98240F480203060306820F434
:102230008010CDE217B30C2F08BFB8F1010F1DD0ED
:1022400040F60046C4F20266E1693068002900F0F9
:10225000CD8140F001003060FEF72CFA054600BF4A
:102260003068400700F1D481FEF724FA401B0228B1
:102270004FF00300F4D900F03ABD00BFE069002838
:1022800000F0D68340F60045C4F20265666AA8688D
:1022900000025ABFD9F860000004A86800F070403E
:1022A000864240F27781002F40F03983D9F8000050
:1022B000400700F11983D9F8000040F00400C9F884
:1022C0000000D9F8000000F0040000900098FEF72C
:1022D00063FBD9F8001021F00401C9F8001005E3F0
:1022E0006068002800F0A483207880072FD5042F91
:1022F00020D00C2F08BFB8F1020F1BD040F60046CB
:10230000C4F20266E1683068002900F0378240F4C8
:1023100080703060FEF7CEF9054600BF306840059A
:102320000CD4FEF7C7F9401B02284FF00300F5D983
:1023300000F0DDBCE068002800F07A8359F8840CD6
:10234000216920F4F81040EA014049F8840C207813
:1023500040F600470007C4F2026771D420784007B6
:1023600000F1C6802078800600F1288120780006E0
:1023700000F162812078400600F1AC81A56B002D50
:1023800000F0D28459F8780C00F00C000C2840F0D2
:10239000618259F86C1C59F8600C012D00F04883DB
:1023A000E26B01F00303934240F04283226CC1F3DD
:1023B0000323013A934240F03B83626C01F4704185
:1023C000914240F03583A26C01466FF35F21013AE0
:1023D000914240F02D83E16CC0F3462201398A42DC
:1023E00040F02683216DC0F3064201398A4240F055
:1023F0001F83616DC0F306600139884240F0188385
:1024000059F85C0CE16DC0F3CC00884200F08C847C
:1024100059F86C0C20F0100049F86C0CFEF74AF9E2
:102420000546FEF747F9A842FBD0E06DC00049F829
:102430005C0C59F86C0C40F0100000F073BC00BF4D
:10244000D9F800005FEA40780BD4D9F8000040F0DA
:102450000400C9F80000D9F8000000F00400009062
:1024600000984FF62846CFF6FF76B859C00713D12B
:10247000B85940F00100B851FEF71CF9054600BFFD
:10248000B859C00708D1FEF715F9401B0228F7D943
:10249000032001B0BDE8F0836069D9F85C10002822
:1024A00000F0E280A06901F08052904200F0328397
:1024B00001F04062B2F1006F00F0BA82490140F1D0
:1024C0002283D9F85C0020F0A050C9F85C00FEF728
:1024D000F1F80546D9F85C00000140F11383FEF7DE
:1024E000E9F8401B05284FF00300F3D900F0FFBBCB
:1024F000D9F800005FEA40780BD4D9F8000040F02A
:102500000400C9F80000D9F8000000F004000090B1
:1025100000984FF62846CFF6FF76B859C00713D17A
:10252000B85940F00100B851FEF7C4F8054600BFA5
:10253000B859C00708D1FEF7BDF8401B02284FF07C
:102540000300F5D9D3E300BFA068C10740F0A28023
:10255000D9F85C10002821F00101C9F85C10D9F805
:102560005C1021F00401C9F85C1040F0A180FEF776
:10257000A1F8054641F28836D9F85C00800740F1A1
:102580009782FEF797F8401BB0424FF00300F3D953
:10259000ADE300BFA868B6F1404F40F40000A8606A
:1025A000A86820F0704040EA0600A860C0F0AC8047
:1025B000E868216A20F01F000843F7E1E16A386803
:1025C000002900F0ED8040F480503860FEF772F88A
:1025D000054600BF386880043FF5C8AEFEF76AF8CC
:1025E000401B02284FF00300F4D980E320F00100E3
:1025F0003060FEF75FF80546306840077FF5F7ADBD
:10260000FEF758F8401B02284FF00300F4D96EE3A0
:10261000B06840F40000B060B168606A21F07041B9
:102620000143B0F1404FB160C0F09880F068216A7A
:1026300020F01F00084337E2216B3868002900F0C2
:10264000F78040F480403860FEF734F8054600BF5C
:10265000386800043FF58EAEFEF72CF8401B0228C8
:102660004FF00300F4D942E321F0A050C9F85C0018
:10267000FEF720F8054600BFD9F85C00000140F1E4
:102680005F82FEF717F8401B05284FF00300F3D9CF
:102690002DE300BFD9F85C10400705D541F00400D8
:1026A000C9F85C00D9F85C1041F00100C9F85C0081
:1026B000FEF700F8054641F2883600BFD9F85C0005
:1026C000800731D4FDF7F6FF401BB0424FF0030006
:1026D000F4D90CE3606B002800F0F280B86840F495
:1026E0000000B860B968D4E9090221F07061B0F166
:1026F000404F41EA0201B960C0F04481F868216AA4
:1027000020F01F000843DFE2B6F1FF3F40F32881CD
:10271000E968206AB6F1804FC0F0448121F4F841A5
:1027200041EA802042E100BFA168D9F85C000906B7
:1027300000F1B28020F0800041F28836C9F85C00D8
:10274000D9F85C00000540F1B881FDF7B3FF401BEC
:10275000B0424FF00300F3D9C9E200BFB0F1FF3F30
:1027600040F37281F268216AB0F1804FC0F0988125
:1027700022F4F84040EA812096E100BF20F4807006
:102780003060FDF797FF0546306840057FF5DFAD07
:10279000FDF790FF401B02284FF00300F4D9A6E29A
:1027A00020F480503860FDF785FF054638688004C6
:1027B0007FF5DCADFDF77EFF401B02284FF00300E4
:1027C000F4D994E240F480203060306840F4801006
:1027D0003060306840F480303060FDF76BFF0546B4
:1027E000306880033FF580ADFDF764FF401B64282F
:1027F0004FF00300F4D97AE220F480303060306882
:10280000002920F480203060306820F4801030608F
:10281000E3D1FDF74FFF0546306880037FF564ADD7
:10282000FDF748FF401B64284FF00300F4D95EE237
:1028300020F480403860FDF73DFF0546386800040D
:102840007FF598ADFDF736FF401B02284FF00300DF
:10285000F4D94CE2386820F080703860FDF72AFF28
:10286000022D05460CD13868800140F17581FDF7D5
:1028700021FF401B02284FF00300F4D937E200BFCC
:102880003868800140F1F681FDF714FF401B0228F3
:102890004FF00300F4D92AE240F0800041F288367C
:1028A000C9F85C00D9F85C00000500F10681FDF76D
:1028B00001FF401BB0424FF00300F3D917E200BF05
:1028C000386820F010003860FDF7F4FE054600BFC0
:1028D000386880067FF552ADFDF7ECFE401B0228FC
:1028E0004FF00300F4D902E2FEF756F820F48031ED
:1028F000B1F5003F3CD10021B6F1805F38BF012126
:1029000042F20000C4F20200026822F00F020A4400
:102910000260006800F00F00884240F08980A868DB
:1029200040F40000A860A968606A21F0704101438A
:10293000B0F1404FA96005D3E868216A20F01F007C
:1029400008438DE0B0F1FF3F76DDEA68216AB0F11F
:10295000804FC0F0818022F4F84040EA81207FE07F
:10296000E868216A20F4787040EA41101EE000BF58
:102970000021B1EB167F40F0AD80B0F5803F57D11C
:102980000321BDE7B0F1FF3F40F37C81FA68216A83
:10299000B0F1804FC0F0948122F4F84040EA8120E9
:1029A00092E100BF21F4782141EAC030002FE860B5
:1029B00057D1D9F80000400714D4D9F8000040F0EE
:1029C0000400C9F80000D9F8000000F004000090ED
:1029D0000098FDF7E1FFD9F8001021F00401C9F8D3
:1029E000001001E0FDF7D8FF20F48031B1F5003F81
:1029F00014D10021B6F1805F38BF012142F20000FE
:102A0000C4F20200026822F00F020A440260006869
:102A100000F00F00884224D00AE000BF0021B1EB93
:102A2000167F63D1B0F5803F02D10321E6E700BFF6
:102A3000012001B0BDE8F083E868216A20F47870D5
:102A400040EA41100CE000BFF068216A20F4787081
:102A500040EA411028E000BF22F4782040EAC1306B
:102A6000E860FFF729FB59F8741C45F21C5201F08D
:102A70000F01C0F60002515C40F20C0220FA01F195
:102A800040F20800C2F200000068C2F200021160C9
:102A9000FDF752FE002840F02A81FFF7A8BB00BFD7
:102AA00022F4782040EAC130F060FFF7A0BB00BFFD
:102AB000D9F85C00000600F1ED80B8F1000F3FF599
:102AC00051ACD9F8000020F00400C9F80000FFF76D
:102AD00049BC00BFB6F1005F40F20C8100287FF4D2
:102AE0000FAFB6F1405F98BF012109E7B6F1005F73
:102AF00040F20A8100287FF481AFB6F1405F98BFB1
:102B000001217BE7A069D9F85C1021F080510843CE
:102B1000C9F85C00D9F85C0040F08060C9F85C003E
:102B2000FDF7C8FD054600BFD9F85C00000107D4D9
:102B3000FDF7C0FD401B05284FF00300F4D9D6E097
:102B4000B8F1000F3FF50AACD9F8000020F00400FE
:102B5000C9F80000FFF702BCD9F800005FEA407C2A
:102B60000BD4D9F8001041F00401C9F80010D9F8CD
:102B7000001001F00401009100994FF60C48CFF6C7
:102B8000FF7857F808E057F808304FF6037623F43B
:102B9000802347F8083059F86C3CD4E91102B3435C
:102BA000D4E90F656FF0FF013343184301EB0521B2
:102BB0004FF47E43084349F86C0C59F8600C00212F
:102BC000C8F280010840511EE26C4FF4FE0503EB91
:102BD0004222236D6FF35F2105EB0343656D92B2D3
:102BE0004FF0FE4606EB0565084403F4FE0310446F
:102BF00005F0FE451844284449F8600C59F86C0C5F
:102C000020F0100049F86C0CE06DC00049F85C0C35
:102C100059F86C0C40F0100049F86C0C59F86C0C29
:102C2000A16D20F00C0008435FEA4E3149F86C0CAE
:102C300005D557F8080040F4802047F80800BCF19B
:102C4000000F05D4D9F8000020F00400C9F80000F6
:102C5000386840F080703860FDF72CFD0446386815
:102C600080015BD4FDF726FD001B02284FF0030016
:102C7000F5D93CE059F86C0C4FF6FC71CFF6F871C1
:102C800008404FE0F868216A20F4787040EA41106B
:102C90001AE000BFD9F85C0041F2883620F08000CD
:102CA000C9F85C00D9F85C0000057FF506AFFDF7B8
:102CB00001FD401BB0424FF00300F3D917E000BF05
:102CC00022F4782040EAC130F860386840F0100003
:102CD0003860FDF7EFFC0546386880063FF54EABDF
:102CE000FDF7E8FC401B02284FF00300F4D901B0C7
:102CF000BDE8F083B6F1805F1AD10221B0F5803FC4
:102D000008BF0121FCE500BFB6F1805F12D10221AE
:102D1000B0F5803F08BF012170E600BF59F86C0C88
:102D200040F4802049F86C0C002001B0BDE8F0832D
:102D30000121E5E5012161E6042888BF7047DFE84D
:102D400000F0031B13352D004EF21000CEF20000F0
:102D5000016821F00401016040F6E040C4F2026025
:102D6000016821F4400120E04EF21000CEF2000094
:102D70000168022206E000BF4EF21000CEF2000011
:102D80000168012221F00401016040F6E040C4F234
:102D90000260016862F3975107E000BF4EF2100035
:102DA000CEF20000016841F00401016070470000AC
:102DB000411E0020B0EB116F1CBF012070474EF286
:102DC0001002CEF2000251609060116841F00301E0
:102DD000116070474EF21000CEF20000006840070C
:102DE00044BF0420704740F6E040C4F2026000682F
:102DF00002A1C0F3815051F820007047000000008C
:102E000001000000020000000000000090F88410A3
:102E1000012904BF022070472421C0F888100168EE
:102E20000A680B6822F0005223F001030B600023B4
:102E300043660A602021C0F8881080F884300020A2
:102E400070470000704700007047000090F8842031
:102E5000012A04BF02207047B0B52422C0F88820A0
:102E60000268D0F864E0D2F800C01368BEF1000F29
:102E700023F001031360936823F0606341EA0301C8
:102E8000916019D09368916845F20C6E490FC0F6B5
:102E9000000E45F214651EF80140C0F60005C3F3AC
:102EA0004263695CE400B4FBF1F11EF80340EB5CA3
:102EB000E500B5FBF3F301E001210123A0F86A105E
:102EC0002021A0F86830C2F800C0C0F888100021A6
:102ED00080F884100020B0BD90F88420012A04BF3F
:102EE00002207047B0B52422C0F888200268D0F8CC
:102EF00064E0D2F800C01368BEF1000F23F00103B4
:102F00001360936823F0604341EA0301916019D094
:102F10009368916845F20C6E490FC0F6000E45F2B9
:102F200014651EF80140C0F60005C3F34263695CF6
:102F3000E400B4FBF1F11EF80340EB5CE500B5FBE7
:102F4000F3F301E001210123A0F86A102021A0F889
:102F50006830C2F800C0C0F88810002180F88410E2
:102F60000020B0BD704700007047000070B50268D7
:102F700040F62F04D369116896681C40202C0BD1B1
:102F800001F0200406F080552D1916D0416F61B371
:102F9000BDE87040084700BF40F60F052B420CD03B
:102FA0000125C1F2000506EA050C40F22015C0F229
:102FB00000450D4015EB0C0556D1C46EDD0615D548
:102FC000012C13D111F0100510D01021116291685D
:102FD000490655D4B0F85C10B0F85E20B0F85E3009
:102FE000002B18BF914240F00B8270BD1A0606D527
:102FF00001F0800206F40006921940F0F3805A06B0
:1030000040F1D88011F0400200F0D480016851E80E
:10301000001F026821F0400142E80013DBB10168A3
:1030200051E8001F026821F0400142E8001393B10B
:10303000016851E8001F026821F0400142E80013D6
:103040004BB1016851E8001F026821F0400142E8DD
:103050000013002BDAD12021C0F8881000218167ED
:10306000BDE8704000F020BCDD0718BF11F480758A
:1030700040F0CC809D0706F0010E00F1D380DCE02B
:10308000D0F8802011688B6CB0F85C4099B20029B0
:1030900000F09A80A14280F09780A0F85E30116D18
:1030A00081297BD0016851E8001F026821F48071FA
:1030B00042E80013BBB3016851E8001F026821F425
:1030C000807142E8001373B3016851E8001F026881
:1030D00021F4807142E800132BB3016851E8001F0E
:1030E000026821F4807142E80013002BDAD11AE063
:1030F000016851E8021F026821F0010142E8021351
:10310000DBB1016851E8021F026821F0010142E8C9
:10311000021393B1016851E8021F026821F0010116
:1031200042E802134BB1016851E8021F026821F026
:10313000010142E80213002BDAD12021C0F88C10E3
:103140000021C166016851E8001F026821F01001EA
:1031500042E80013DBB1016851E8001F026821F06A
:10316000100142E8001393B1016851E8001F0268A2
:1031700021F0100142E800134BB1016851E8001F33
:10318000026821F0100142E80013002BDAD1D0F8D8
:10319000801004460846FDF7EFF82046022101673B
:1031A000B0F85C10B0F85E20891A89B2BDE87040B2
:1031B000FFF748BE1A021DD511F080421AD0BDE8B3
:1031C0007040FFF7CFBE00BF8C427FF40EAF126D90
:1031D000812A7FF40AAF02220267BDE87040FFF740
:1031E00031BE00BF816F00293FF4FFAEBDE87040E3
:1031F000084700BFDA017FF5F8AEB1F1FF3FC8BF65
:1032000070BDBDE87040FFF71FBE00BF012515620D
:10321000D0F8905045F00105C0F890509D0706F099
:10322000010E0AD5BEF1000F07D002241462D0F8B7
:10323000904044F00404C0F890405C070AD5BEF109
:10324000000F07D004251562D0F8905045F0020514
:10325000C0F890501D070CD501F0200555EA0C056B
:1032600007D008251562D0F8905045F00805C0F841
:1032700090501D050BD511F0806508D04FF4006506
:103280001562D0F8905045F02005C0F89050D0F865
:103290009050002D3FF4A9AE9B060BD501F0200104
:1032A00006F08053C91805D0416F19B1044688470C
:1032B00022682046D0F89010926801F0280102F0B0
:1032C0004002891806D10446FFF74EFE0020C4F8DC
:1032D000900070BD016851E8001F026821F49071F0
:1032E00042E80013DBB1016851E8001F026821F4D5
:1032F000907142E8001393B1016851E8001F026821
:1033000021F4907142E800134BB1016851E8001FAD
:10331000026821F4907142E80013002BDAD14FF6D5
:10332000FE71CEF6FF7100BF026852E8022F0368FB
:103330000A4043E80226C6B1026852E8022F036839
:103340000A4043E8022686B1026852E8022F036869
:103350000A4043E8022646B1026852E8022F036899
:103360000A4043E80226002EDED1C16E012924D195
:10337000016851E8001F026821F0100142E80013C3
:10338000DBB1016851E8001F026821F0100142E83A
:10339000001393B1016851E8001F026821F0100189
:1033A00042E800134BB1016851E8001F026821F0A8
:1033B000100142E80013002BDAD12021C0F88C1054
:1033C0000021C166026841679168490640F1988012
:1033D000D0F88010002900F0938043F64D52C0F6DB
:1033E000000204460846CA66FDF71AF800283FF4B2
:1033F000FCADD4F88000C16EBDE87040084700BF46
:10340000891A00BF026852E8002F036822F4907204
:1034100043E80026DEB1026852E8002F036822F478
:10342000907243E8002696B1026852E8002F0368C4
:1034300022F4907243E800264EB1026852E8002F51
:10344000036822F4907243E80026002EDAD14FF68A
:10345000FE72CEF6FF7200BF036853E8023F0668B3
:10346000134046E80235C5B1036853E8023F0668D9
:10347000134046E8023585B1036853E8023F066809
:10348000134046E8023545B1036853E8023F066839
:10349000134046E80235002DDED12022C0F88C20F2
:1034A0000022C266426700BF026852E8002F03682C
:1034B00022F0100243E80026DEB1026852E8002F35
:1034C000036822F0100243E8002696B1026852E831
:1034D000002F036822F0100243E800264EB1026874
:1034E00052E8002F036822F0100243E80026002E65
:1034F000DAD1022289B20267BDE87040FFF7A2BCB0
:10350000BDE87040FFF730BD10B5D8B10446D0F823
:10351000880028B9002084F88400204600F026F8AE
:103520002420C4F888002068A16A0268002922F0DB
:10353000010202601CBF204600F0DEFA204601F0C6
:10354000EFF808B1012010BD2168486820F49040D0
:103550004860886820F02A008860086840F001020E
:1035600020460A60BDE8104000F03ABBB0B5B8B0E4
:10357000044602A800250830B8213795CDE9355515
:10358000CDE93355FCF7AEFE206843F60001C4F2E6
:103590000101884202D038B0B0BD00BF01200290C6
:1035A00002A80395FEF7BAF8002818BFFCF7E0FE62
:1035B00040F68C40C4F20260816941F4804181612F
:1035C000816901F4804101910199016841F0010193
:1035D0000160006833A900F00100019001984FF4E8
:1035E000C0603390022034900020CDE935000720E0
:1035F00037900020C4F20220FCF73AFF3D20002162
:103600000022FDF70FF93D20FDF7FAF838B0B0BD04
:10361000D0F88C30202B1CBF0220704700294FF0BF
:10362000010318BF002A01D1184670470023C36662
:10363000D0F800C0DCF808305B0605D5DCF80830AF
:1036400023F04003CCF8083080B542F200434CF040
:10365000805EC5F200639E4506D101F067F9002344
:10366000BDE8804018467047DCF804301B02F4D5F2
:10367000036853E800CFD0F800E04CF080634EE8D8
:10368000003CBCF1000FE8D0036853E800CFD0F84D
:1036900000E04CF080634EE8003CBCF1000FDCD051
:1036A000036853E800CFD0F800E04CF080634EE8A8
:1036B000003CBCF1000FD0D0036853E800CFD0F835
:1036C00000E04CF080634EE8003CBCF1000FCFD12D
:1036D000C3E70000006843F60001C4F2010188421C
:1036E00018BF704740F2140040F210010123C2F2EB
:1036F0000000C2F2000101224B70FFF789BF0000F9
:103700002DE9F0410446D0F8880020281CBF022093
:10371000BDE8F08100294FF0010018BF002A01D157
:10372000BDE8F0812068884681681D461646090676
:1037300003D5816821F0800181600020C4F89000E9
:103740002120C4F88800FCF7B5FFA4F85460A4F861
:103750005660A1680646B1F5805F02D12069002855
:1037600064D047460020B4F856202168002A65D06E
:103770006A1C26D0002D51D0804600BFC8690006C3
:1037800008D4FCF797FF801BA84200F281802168D3
:103790000868F3E717B117F8010B04E038F8020BDB
:1037A00000276FF35F208862B4F856000138A4F850
:1037B0005600B4F856000028E0D13FE0CA6912066E
:1037C00009D4CA69120606D4CA6912065CBFCA695E
:1037D0005FEA0262F2D51FB117F8012B05E000BFC6
:1037E00030F8022B00276FF35F228A62B4F856206C
:1037F000013AA4F85620B4F85620002AE1D11DE081
:1038000030F8022B00276FF35F228A62B4F856204B
:10381000013AA4F85620B4F856207AB1CA691206C3
:1038200034D5002FECD017F8012BEEE700274046E7
:10383000B4F856202168002A7FF49AAFC869400680
:103840001ED41DB3681C14D1C869400626D4C869AB
:10385000400623D4C869400620D4C86940064FF00A
:103860000000F1D50DE000BF20680168C069400686
:1038700014D4FCF71FFF801BA842F5D908E000BF55
:1038800000202021C4F88810BDE8F081FCF712FF69
:1038900003202021C4F88810BDE8F08100202021F9
:1038A000C4F88810BDE8F08170470000FEE7000012
:1038B000FEE70000FEE700007047000070B540F62C
:1038C0002C46C4F2026656F82C1C044621F0806097
:1038D00046F82C0CFCF7EEFE054600BF56F82C0C03
:1038E000000105D5FCF7E6FE401B0228F6D95CE096
:1038F000306840F60371884394E80E106FF0FF05BE
:1039000005EB022208431043306030690021C8F201
:10391000800100EA010E591E4FF47E42236902EB3A
:103920004C224FF4FE0505EB034365696FF35F21FD
:1039300092B24FF0FE4000EB0560714403F4FE03C9
:10394000114400F0FE401944084430613068A16918
:1039500020F00C0008433060206A31680843306072
:1039600030684FF6F87120F0100030607069E2693D
:10397000884340EAC2007061306840F01000306057
:1039800056F82C0C40F0806046F82C0CFCF792FEA8
:10399000044600BF56F82C0C000144BF002070BD47
:1039A000FCF788FE001B0328F4D3032070BD000041
:1039B00070B540F63046C4F2026656F8301C044634
:1039C00021F0805046F8300CFCF774FE054600BF2D
:1039D00056F8300C800005D5FCF76CFE401B022821
:1039E000F6D95CE0306840F60371884394E80E1025
:1039F0006FF0FF0505EB0222084310433060706949
:103A00000021C8F2800100EA010E591E4FF47E42E7
:103A1000236902EB4C224FF4FE0505EB0343656975
:103A20006FF35F2192B24FF0FE4000EB05607144EE
:103A300003F4FE03114400F0FE4019440844706191
:103A40003068A16920F00C0008433060206A3168BA
:103A50000843306030684FF6F87120F01000306095
:103A6000B069E269884340EAC200B061306840F062
:103A70001000306056F8300C40F0805046F8300CA2
:103A8000FCF718FE044600BF56F8300C800044BF17
:103A9000002070BDFCF70EFE001B0328F4D30320AA
:103AA00070BD000070470000FCF70ABE4EF6885C4F
:103AB000CEF2000CDCF80010012241F47001CCF8C9
:103AC000001040F60041C4F202610A600022CA619F
:103AD0000A624A620B684FF6FF70CEF6F620184075
:103AE00008608A62086820F4802008604FF0006057
:103AF0000A654CF8800C7047816A0A070CD4CA0723
:103B000015D18A071ED44A0727D4CA0630D48A069C
:103B100039D44A0642D457E00268D0F838C0536816
:103B200023F4004343EA0C035360CA07E9D0026858
:103B3000D0F82CC0536823F4003343EA0C035360DD
:103B40008A07E0D50268D0F830C0536823F4803388
:103B500043EA0C0353604A07D7D50268D0F834C053
:103B6000536823F4802343EA0C035360CA06CED57E
:103B70000268D0F83CC0936823F4805343EA0C03F6
:103B800093608A06C5D50268D0F840C0936823F4D4
:103B9000005343EA0C0393604A0615D5D0F800C0E1
:103BA000436CDCF80420B3F5801F22F4801242EA53
:103BB0000302CCF8042007D1DCF80420836C22F443
:103BC000C0021A43CCF80420090658BF70470168A8
:103BD000C06C4A6822F4002210434860704700001D
:103BE000B0B582B004460020C4F89000FCF762FD36
:103BF000216805460A68120737D56FF07E4C2046CB
:103C00004FF4001100222B46CDF800C000F0C0FF99
:103C100050B300BF206850E8000F216820F08000FA
:103C200041E80002DAB1206850E8000F216820F076
:103C3000800041E8000292B1206850E8000F21683E
:103C400020F0800041E800024AB1206850E8000FEF
:103C5000216820F0800041E80002002ADAD1032028
:103C6000202188226BE000BF2168086840075DD5ED
:103C70006FF07E4C20464FF4800100222B46CDF899
:103C800000C000F085FF002850D000BF206850E839
:103C9000000F216820F4907041E80002BAB3206858
:103CA00050E8000F216820F4907041E8000272B3E0
:103CB000206850E8000F216820F4907041E800026D
:103CC0002AB3206850E8000F216820F4907041E882
:103CD0000002002ADAD11AE0206850E8020F2168B9
:103CE00020F0010041E80202DAB1206850E8020F3A
:103CF000216820F0010041E8020292B1206850E8FA
:103D0000020F216820F0010041E802024AB1206858
:103D100050E8020F216820F0010041E80202002A69
:103D2000DAD1032020218C2209E000BF2020C4F832
:103D30008800C4F88C00002170220020E166A150A8
:103D4000002184F8841002B0B0BD0000C06D0021D5
:103D5000A0F85E10FFF708B9B0F860200168D0F84D
:103D60008C30222B40F0A280496A836D114023F8E9
:103D7000021B8365B0F85E100139A0F85E10B0F840
:103D80005E10002918BF7047016851E8001F0268E3
:103D900021F4907142E80013E3B1016851E8001F7B
:103DA000026821F4907142E800139BB1016851E868
:103DB000001F026821F4907142E8001353B10168BA
:103DC00051E8001F026821F4907142E80013002BB3
:103DD000DAD100BF016851E8021F026821F0010139
:103DE00042E80213DBB1016851E8021F026821F0CA
:103DF000010142E8021393B1016851E8021F026811
:103E000021F0010142E802134BB1016851E8021FA1
:103E1000026821F0010142E80213002BDAD12021CF
:103E2000C0F88C10002141670167016842F200432D
:103E300041F08052C5F200639A423DD1C16E012922
:103E400018BFFFF747BC0021C16600BF016851E8F9
:103E5000001F026821F0100142E80013DBB1016885
:103E600051E8001F026821F0100142E8001393B1ED
:103E7000016851E8001F026821F0100142E80013B8
:103E80004BB1016851E8001F026821F0100142E8BF
:103E90000013002BDAD10168CA69D20644BF102290
:103EA0000A62B0F85C10FEF7CDBF00BF886940F031
:103EB00008008861704700BF49680902BED500BF8D
:103EC000016851E8001F026821F0806142E8001398
:103ED000002BB3D0016851E8001F026821F0806117
:103EE00042E80013002BA9D0016851E8001F0268C6
:103EF00021F0806142E80013002B9FD0016851E857
:103F0000001F026821F0806142E80013002BD7D126
:103F100094E700002DE9F04F81B004460068B4F842
:103F20006050C66901688268D4F88C30222B40F05A
:103F30004381B4F86800002800F0E48001F4807840
:103F400002F001074FF000094FF0020B4FF0010A99
:103F500004E000BFB4F85E0000285CD0B00640F179
:103F6000D1802068A16D426A2A4021F8022BA16508
:103F7000B4F85E100139A4F85E10C6697107E9D083
:103F8000F20718BFB8F1000F02D1B2070AD412E04D
:103F9000C0F820A0D4F8902042F00102C4F890208C
:103FA000B20708D53FB1C0F820B0D4F8902042F055
:103FB0000402C4F89020002908D53FB10421016211
:103FC000D4F8900040F00200C4F89000D4F89000BB
:103FD0000028BFD02046FEF7C7FFC4F89090B9E78D
:103FE000206850E8000F216820F4807041E800024A
:103FF000DAB1206850E8000F216820F4807041E8B1
:10400000000292B1206850E8000F216820F480700F
:1040100041E800024AB1206850E8000F216820F40E
:10402000807041E80002002ADAD14FF6FE70CEF629
:10403000FF7000BF216851E8021F2268014042E87A
:104040000213C3B1216851E8021F2268014042E80F
:10405000021383B1216851E8021F2268014042E83F
:10406000021343B1216851E8021F2268014042E86F
:104070000213002BDED12020C4F88C0000206067E2
:104080002067206842F2004240F08051C5F2006291
:10409000914240F0A180E06E012840F09580002020
:1040A000E06600BF206850E8000F216820F0100093
:1040B00041E80002DAB1206850E8000F216820F0E2
:1040C000100041E8000292B1206850E8000F21681A
:1040D00020F0100041E800024AB1206850E8000FCB
:1040E000216820F0100041E80002002ADAD120689F
:1040F000C169C90644BF10210162B4F85C102046B2
:10410000FEF7A0FEB4F85E00002852D0B4F86810A4
:1041100088424ED2206850E8020F216820F080507B
:1041200041E80202DAB1206850E8020F216820F06D
:10413000805041E8020292B1206850E8020F2168E5
:1041400020F0805041E802024AB1206850E8020F96
:10415000216820F0805041E80202002ADAD143F6BB
:104160005950C0F600006067206850E8000F2168D1
:1041700040F0200041E80002DAB1206850E8000F6A
:10418000216840F0200041E8000292B1206850E828
:10419000000F216840F0200041E800024AB1206889
:1041A00050E8000F216840F0200041E80002002A9A
:1041B000DAD101B0BDE8F08F816941F00801816179
:1041C00001B0BDE8F08F00BF2046FFF783FAB4F8D6
:1041D0005E0000289AD1ECE7406800027FF55BAFF3
:1041E000206850E8000F216820F0806041E800025C
:1041F000002A3FF450AF206850E8000F216820F0FB
:10420000806041E80002002A3FF445AF206850E892
:10421000000F216820F0806041E80002002A3FF48E
:104220003AAF206850E8000F216820F0806041E834
:104230000002002AD4D12EE7B0F860100268D0F84E
:104240008C30222B40F0A480526A836D114019708B
:10425000816D01318165B0F85E100139A0F85E1002
:10426000B0F85E10002918BF704700BF016851E820
:10427000001F026821F4907142E80013E3B1016865
:1042800051E8001F026821F4907142E800139BB1CD
:10429000016851E8001F026821F4907142E80013A0
:1042A00053B1016851E8001F026821F4907142E89F
:1042B0000013002BDAD100BF016851E8021F026829
:1042C00021F0010142E80213DBB1016851E8021F4D
:1042D000026821F0010142E8021393B1016851E83C
:1042E000021F026821F0010142E802134BB101688C
:1042F00051E8021F026821F0010142E80213002B7D
:10430000DAD12021C0F88C100021416701670168D3
:1043100042F2004341F08052C5F200639A423DD11F
:10432000C16E012918BFFFF7D5B90021C16600BFD2
:10433000016851E8001F026821F0100142E80013F3
:10434000DBB1016851E8001F026821F0100142E86A
:10435000001393B1016851E8001F026821F01001B9
:1043600042E800134BB1016851E8001F026821F0D8
:10437000100142E80013002BDAD10168CA69D206A5
:1043800044BF10220A62B0F85C10FEF75BBD00BFAC
:10439000906940F008009061704700BF49680902C9
:1043A000BED500BF016851E8001F026821F080619E
:1043B00042E80013002BB3D0016851E8001F0268E7
:1043C00021F0806142E80013002BA9D0016851E878
:1043D000001F026821F0806142E80013002B9FD08B
:1043E000016851E8001F026821F0806142E8001373
:1043F000002BD7D194E700002DE9F04F81B004469F
:104400000068B4F86050C66901688268D4F88C30DE
:10441000222B40F04581B4F86800002800F0E680C7
:1044200001F4807B02F001074FF000084FF0020A10
:104430004FF0010904E000BFB4F85E0000285ED030
:10444000B00640F1D3802068A16D406A2840087012
:10445000A16D20680131A165B4F85E100139A4F89E
:104460005E10C6697107E7D0F20718BFBBF1000FF5
:1044700002D1B2070AD412E0C0F82090D4F89020FC
:1044800042F00102C4F89020B20708D53FB1C0F84D
:1044900020A0D4F8902042F00402C4F89020002913
:1044A00008D53FB104210162D4F8900040F0020029
:1044B000C4F89000D4F890000028BDD02046FEF744
:1044C00053FDC4F89080B7E7206850E8000F2168DA
:1044D00020F4807041E80002DAB1206850E8000F53
:1044E000216820F4807041E8000292B1206850E811
:1044F000000F216820F4807041E800024AB1206872
:1045000050E8000F216820F4807041E80002002A82
:10451000DAD14FF6FE70CEF6FF7000BF216851E889
:10452000021F2268014042E80213C3B1216851E82A
:10453000021F2268014042E8021383B1216851E85A
:10454000021F2268014042E8021343B1216851E88A
:10455000021F2268014042E80213002BDED1202016
:10456000C4F88C00002060672067206842F2004297
:1045700040F08051C5F20062914240F0A180E06EAF
:10458000012840F095800020E06600BF206850E8D8
:10459000000F216820F0100041E80002DAB1206825
:1045A00050E8000F216820F0100041E8000292B1AD
:1045B000206850E8000F216820F0100041E8000258
:1045C0004AB1206850E8000F216820F0100041E84F
:1045D0000002002ADAD12068C169C90644BF10214F
:1045E0000162B4F85C102046FEF72CFCB4F85E00C3
:1045F000002852D0B4F8681088424ED2206850E8A3
:10460000020F216820F0805041E80202DAB12068F0
:1046100050E8020F216820F0805041E8020292B178
:10462000206850E8020F216820F0805041E8020223
:104630004AB1206850E8020F216820F0805041E81C
:104640000202002ADAD144F23920C0F60000606785
:10465000206850E8000F216840F0200041E8000287
:10466000DAB1206850E8000F216840F0200041E8EE
:10467000000292B1206850E8000F216840F020004D
:1046800041E800024AB1206850E8000F216840F07C
:10469000200041E80002002ADAD101B0BDE8F08F25
:1046A000816941F00801816101B0BDE8F08F00BF70
:1046B0002046FFF70FF8B4F85E0000289AD1ECE727
:1046C000406800027FF55BAF206850E8000F21686A
:1046D00020F0806041E80002002A3FF450AF2068DB
:1046E00050E8000F216820F0806041E80002002AB5
:1046F0003FF445AF206850E8000F216820F080604B
:1047000041E80002002A3FF43AAF206850E8000F69
:10471000216820F0806041E80002002AD4D12EE711
:1047200070B504462269D4E9021300681143626936
:10473000E6690568114346F6F312CCF6FF722A408B
:1047400011433143016041684FF2FF4521F440516C
:104750001943416042F20041A26940F08053C5F222
:1047600000618B421CBF236A1A438368C1F2FF15A4
:104770002B401A438260C26A636A22F00F021A4316
:1047800044F6FF73C4F200039842C2621ADD42F29B
:10479000FF32C4F20062904230DC45F20001C4F204
:1047A0000001884200F07E8043F60001C4F201015E
:1047B000884257D101200021FCF73CFBB6F5004FA1
:1047C00033D056E044F20041C4F20001884225D0C3
:1047D00044F60001C4F20001884200F09D8044F6D6
:1047E0000041C4F2000188423CD108200021FCF7BE
:1047F00021FBB6F5004F18D03BE000BF42F200426B
:10480000C4F20062904255D088422BD10020002192
:10481000FCF710FB002853D142E000BF022000212A
:10482000FCF708FBB6F5004F23D1C8B3616A45F227
:10483000F452C0F6000232F811106268B0FBF1F0D9
:10484000510801EB4000B0FBF2F04FF6EF72A0F11F
:104850001001914258D84FF6F071C0F3420208405F
:1048600010441BE000200021FCF7E4FAB6F5004FED
:10487000DBD0A8B1616A45F2F452C0F6000232F80A
:1048800011106268B0FBF1F000EB5200B0FBF2F0E7
:104890004FF6EF72A0F11001914235D82168C8603F
:1048A000002032E010200021FCF7C4FAB6F5004FDA
:1048B000DFD1BAE720200021FCF7BCFA0028EFD0B6
:1048C000616A45F2F452C0F6000232F811106268D3
:1048D000B0FBF1F102EB420081424FF0010014D332
:1048E0001303994211D808020B0E10EB520043F14A
:1048F00000010023FBF7BEFC4FF60052A0F540710B
:10490000C0F20F029142C9D301204FF00111A166FC
:104910000021C4E91D1170BD04200021FCF78AFAB2
:10492000B6F5004F3FF481AFA3E700008165A0F822
:104930005C20A0F85E2081680023436771B1B1F16B
:10494000805F07D0B1F5805F0ED1016951B940F2A7
:10495000FF110AE0016919B13F2106E0016909B1BF
:104960007F2102E0FF2100E00021A0F8601000217B
:10497000C0F890102221C0F88C1000BF016851E8E7
:10498000021FD0F800C041F001014CE80213F3B15E
:10499000016851E8021FD0F800C041F001014CE865
:1049A0000213A3B1016851E8021FD0F800C041F022
:1049B00001014CE8021353B1016851E8021FD0F81D
:1049C00000C041F001014CE80213002BD6D1416E2A
:1049D000B1F1005F03D1B0F868108A4240D282681A
:1049E0000169B2F5805F07D1002947D044F239212F
:1049F000C0F60001416707E044F23922C0F6000228
:104A00000029426740D000BF016851E8001F0268DA
:104A100041F4907142E80013002B00F0B680016869
:104A200051E8001F026841F4907142E80013002B26
:104A300000F0AB80016851E8001F026841F49071FA
:104A400042E80013002B00F0A080016851E8001F2D
:104A5000026841F4907142E80013002BD4D194E035
:104A600082680169B2F5805F38D1002962D044F2D2
:104A7000F931C0F60001416736E000BF43F65951F5
:104A8000C0F60001416700BF016851E8001F0268DD
:104A900041F0200142E80013002B76D0016851E874
:104AA000001F026841F0200142E80013002B6CD087
:104AB000016851E8001F026841F0200142E800133C
:104AC000002B62D0016851E8001F026841F020010C
:104AD00042E80013002BD7D157E000BF44F2F9326F
:104AE000C0F60002426759B3016851E8001F02682E
:104AF00041F4807142E8001313B3016851E8001FCC
:104B0000026841F4807142E80013CBB1016851E8BA
:104B1000001F026841F4807142E8001383B101680C
:104B200051E8001F026841F4807142E80013002B35
:104B3000DAD105E043F61571C0F60001416700BF08
:104B4000016851E8021F026841F0805142E80213F7
:104B5000DBB1016851E8021F026841F0805142E870
:104B6000021393B1016851E8021F026841F08051BD
:104B700042E802134BB1016851E8021F026841F09C
:104B8000805142E80213002BDAD100207047000068
:104B90002DE9F041804600681546C2690E46114075
:104BA000891BB1FA81F149098D4223D1069C2CB3AE
:104BB000611C29D1C1693140891BB1FA81F14909D0
:104BC0008D4217D1C1693140891BB1FA81F1490980
:104BD0008D420FD1C1693140891BB1FA81F1490978
:104BE0008D4207D1C1693140891BB1FA81F1490970
:104BF0008D42DFD00020BDE8F08100BFFBF75AFDF9
:104C00000320BDE8F08100BF1F4607E0C0693040C7
:104C1000801BB0FA80F040098542EBD1FBF74AFDDA
:104C2000C01BA04284BF0320BDE8F081D8F800007B
:104C300001684907EAD5402E18BF802EE6D0C16929
:104C4000090700F1A180C1690905DFD54FF40061B2
:104C50000162D8F8000050E8000FD8F8001020F4E6
:104C6000907041E800020AB3D8F8000050E8000F45
:104C7000D8F8001020F4907041E80002B2B1D8F8E2
:104C8000000050E8000FD8F8001020F4907041E8C0
:104C900000025AB1D8F8000050E8000FD8F8001010
:104CA00020F4907041E80002002AD2D14FF6FE7045
:104CB000CEF6FF70D8F8001051E8021FD8F8002097
:104CC000014042E80213F3B1D8F8001051E8021F86
:104CD000D8F80020014042E80213A3B1D8F8001030
:104CE00051E8021FD8F80020014042E8021353B1F6
:104CF000D8F8001051E8021FD8F80020014042E81F
:104D00000213002BD6D1D8F86C0001282CD1D8F88A
:104D1000000050E8000FD8F8001020F0100041E823
:104D200000020AB3D8F8000050E8000FD8F80010CD
:104D300020F0100041E80002B2B1D8F8000050E8BD
:104D4000000FD8F8001020F0100041E800025AB11E
:104D5000D8F8000050E8000FD8F8001020F010003C
:104D600041E80002002AD2D120200021C8F88C009E
:104D7000C8F86C10C8F87410C8F89000032088F8C0
:104D80008410BDE8F08100BF08210162D8F800005E
:104D900050E8000FD8F8001020F4907041E80002AD
:104DA0000AB3D8F8000050E8000FD8F8001020F43B
:104DB000907041E80002B2B1D8F8000050E8000F4E
:104DC000D8F8001020F4907041E800025AB1D8F8E9
:104DD000000050E8000FD8F8001020F4907041E86F
:104DE0000002002AD2D14FF6FE70CEF6FF70D8F83E
:104DF000001051E8021FD8F80020014042E80213D9
:104E0000F3B1D8F8001051E8021FD8F80020014093
:104E100042E80213A3B1D8F8001051E8021FD8F8F5
:104E20000020014042E8021353B1D8F8001051E8C5
:104E3000021FD8F80020014042E80213002BD6D10F
:104E4000D8F86C0001282CD1D8F8000050E8000FE9
:104E5000D8F8001020F0100041E800020AB3D8F89A
:104E6000000050E8000FD8F8001020F0100041E8D2
:104E70000002B2B1D8F8000050E8000FD8F80010D6
:104E800020F0100041E800025AB1D8F8000050E8C4
:104E9000000FD8F8001020F0100041E80002002AAE
:104EA000D2D12020C8F88C0000200821C8F86C005E
:104EB000C8F87400C8F8901088F884000120BDE894
:104EC000F081000040F21400C2F20000FEF74EB87C
:104ED000FEE7000080B582B0019040F21400C2F2FB
:104EE000000001A901224FF0FF33FEF709FC0198F1
:104EF00002B080BD9EB0FBF7F1FB06A804305C2138
:104F0000FBF7F0F900200024FBF7C8FC10B172B6E3
:104F1000FEE700BF102001210690CDE90D104FF0F3
:104F200080400F9006A81494FDF74AF910B172B6AC
:104F3000FEE700BF1F200090002468460021CDE955
:104F40000144CDE903440594FCF7C2FE10B172B6EA
:104F5000FEE700BF40F68C40C4F20260016843F6F1
:104F6000000241F00101016000684FF4E13100F0FE
:104F700001000690069840F21400C2F20000C4F24C
:104F800001020C23C0E90021C0E90244C0E9044346
:104F9000C0E90644C0E908448462FEF7B5FA18B1D6
:104FA00072B600BFFEE700BF40F21400C2F200007C
:104FB0000021FDF791FF18B172B600BFFEE700BFF8
:104FC00040F21400C2F200000021FDF73FFF18B1CB
:104FD00072B600BFFEE700BF40F21400C2F200004C
:104FE000FDF714FF10B172B6FEE700BF6420FBF7B7
:104FF0002BFA0DA000F080FA40F2100440F21400E9
:10500000C2F20004C2F2000021460122FEF700FBBA
:1050100000260DA560780028FCD06670217828460F
:1050200000F018F8F6E700BFE5B0B1E7BBAAEFBCA7
:105030008CE8AFB7E58F91E98081E5AD97E7ACA645
:10504000EFBC9A0D000000003078253032580D0A70
:10505000000000000FB4054B10B503A9044A0298E4
:1050600000F018F810BC5DF814FB0000D54E0008E5
:105070000000002002E008C8121F08C1002AFAD16F
:1050800070477047002001E001C1121F002AFBD1C8
:10509000704700002DE9FF4F8DB00F4605460026F2
:1050A00006E025280BD0DDE90F1290476D1C761C19
:1050B00028780028F5D111B03046BDE8F08F0024E3
:1050C000A246A1460122EC4900E0044315F8013F45
:1050D000203B02FA03F00842F7D128782A2810D0A2
:1050E0006FF02F022878A0F13001092914D80AEBBB
:1050F0008A0102EB410144F0020400EB010A6D1C3D
:10510000F0E701CF5FEA000A03D544F40054CAF186
:10511000000A44F002046D1C28782E2817D115F8D7
:10512000010F44F004042A280ED06FF02F022878D3
:10513000A0F1300109290AD809EB890102EB4101EC
:1051400000EB01096D1CF2E757F8049B6D1C2878F1
:105150006C280FD006DC4C2817D068280DD06A28A0
:1051600014D104E0742810D07A280FD10DE044F453
:1051700000140AE044F4801401E044F44014697817
:10518000814202D104F580146D1C6D1C2A786E2AB0
:105190001FD00CDC632A31D004DC002A8BD0582AC3
:1051A00011D1A3E0642A68D0692A0CD165E0732A82
:1051B0002ED004DC6F2A73D0702A04D19BE0752AAC
:1051C0006FD0782A6ED01046DDE90F129047761C1A
:1051D00050E1C4F30250022806D0032809D0042865
:1051E00001CF09D0066045E101CFF117C0E90061A8
:1051F00040E101CF06803DE106703BE117F8040B6A
:105200008DF8000000208DF80100EB46012003E03E
:1052100057F804BB4FF0FF3061074FF0000102D494
:105220000DE008F10101884649450FDA8045F8DBB9
:105230001BF808100029F4D108E008F101018846A4
:105240008142FADB1BF808100029F6D1DDE90F23B3
:10525000AAEB08008146214600F036F9304400EB05
:10526000080604E0DDE90F121BF8010B9047B8F1C6
:105270000108F7D221464846F7E00A21C4F3025359
:105280004FF0000B0891022B04D001CFC117032B64
:1052900009D00AE0FF1D27F00707F7E8020108E040
:1052A00032E01FE020E000B2C117042B01D140B270
:1052B000C117031E71F1000307DA4FF0000CD0EBA9
:1052C0000C006CEB01012D2302E0230504D52B23F8
:1052D0008DF82430012303E0E30701D02023F7E712
:1052E000984658E00A2110E010210EE010204FF0FF
:1052F000000B08900CE010214FF0000B44F0040468
:105300004FF00809089103E008214FF0000B0891C5
:10531000C4F30253022B04D001CF0021032B06D08B
:1053200006E0FF1D27F00707F7E8020103E080B25F
:10533000042B00D1C0B24FF0000823072BD5702AF0
:1053400007D0DDF820C08CF0100C5CEA0B0C05D007
:105350000EE040238DF82430012308E050EA0103D9
:1053600006D030238DF824308DF82520022398466E
:10537000DDF820C08CF0080C5CEA0B0C0BD150EA75
:10538000010301D1630706D530238DF824304FF097
:105390000108A9F10109582A04D038A20B9208AAE1
:1053A0000A920BE03AA2F9E75B46089AFAF762FF25
:1053B0000B9B9B5C0A9A521E0A92137050EA0102E0
:1053C000F2D10A98ADEB000000F1200B600702D586
:1053D00024F4803401E04FF00109D94502DDA9EB46
:1053E0000B0000E0002000EB0B0141440890AAEB09
:1053F000010AE00306D4DDE90F232146504600F000
:1054000063F806444FF0000908E009A911F8090003
:10541000DDE90F12904709F10109761CC145F4DB63
:10542000E0030CD5DDE90F232146504600F04CF88F
:10543000064404E0DDE90F1230209047761C0899FD
:10544000481E08900029F5DC08E00A980A990078BF
:10545000491C0A91DDE90F129047761CBBF100014F
:10546000ABF1010BF1DC21465046DDE90F2300F0E2
:1054700019F806446D1C1BE609280100303132334F
:105480003435363738396162636465660000000080
:10549000303132333435363738394142434445466A
:1054A000000000002DE9F041044600251E46174685
:1054B000880404D405E039462020B0476D1C641EE2
:1054C000F9D52846BDE8F0812DE9F04104460025D4
:1054D0001E469046C80301D5302700E020278804E7
:1054E00004D505E041463846B0476D1C641EF9D529
:1054F0002846BDE8F081000010B5044601E0FFF742
:10550000E9FC14F8010B04490028F8D1BDE810406B
:105510000A20FFF7DFBC00000000002000000000B0
:105520000000000001020304060708090000000053
:1055300001020304000002420100000000000242D8
:1055400003000000000002420600000000040242C6
:1055500001000000000402420A00000000080242AC
:1055600002000000000C02420D000000000C02428C
:1055700002000000000802420A000000000402428B
:1055800000000000000802420C000000000402427B
:105590000300000000040242040000000010024268
:1055A0000000000000100242020000000010024251
:1055B00003000000006CDC0200366E010024F400E1
:1055C000001BB70000093D0080841E00504B1400F2
:1055D00040420F0000E02E000070170000A00F00F6
:1055E00000B80B00801A0600400D03008807020077
:1055F000A0860100010002000400060008000A0065
:105600000C00100020004000800000010101010397
:1056100007010000080402040801010140560008C7
:1056200000000020100000007450000850560008D0
:1056300010000020A00400008450000800000000BA
:1056400000000000010000001000000000093D0003
:0400000508000239B4
:00000001FF
